:0200000490006A
:10000000000002204DB40090252000902720009091
:10001000292000902B2000902D200090000000004F
:10002000000000000000000000000000319500907A
:100030002F20009000000000D19500907B9200904E
:100040009DB400909DB400909DB400909DB400902C
:100050009DB400909DB400909DB400909DB400901C
:100060009DB400909DB400909DB400909DB400900C
:100070009DB400909DB400909DB4009031200090FC
:100080009DB400909DB400909DB400909DB40090EC
:100090009DB400909DB400909DB400909DB40090DC
:1000A0009DB400909DB400909DB400909DB40090CC
:1000B000412000909DB400909DB400909DB40090AC
:1000C0009DB400909DB400909DB400909DB40090AC
:1000D0009DB400909DB400909DB400909DB400909C
:1000E0009DB400909DB400909DB400909DB400908C
:1000F0009DB400909DB400909DB400909DB400907C
:100100009DB400909DB400909DB400909DB400906B
:100110009DB400909DB400909DB400909DB400905B
:100120009DB400909DB400909DB400909DB400904B
:100130009DB4009000000000000000009DB40090FD
:100140009DB400909DB400909DB400909DB400902B
:100150009DB400909DB400909DB400909DB400901B
:100160009DB400909DB400909DB400909DB400900B
:100170009DB4009091CA00909DB400909DB40090F1
:100180009DB400909DB400909DB400909DB40090EB
:10019000512000909DB40090612000909DB400908B
:1001A0009DB400909DB400909DB400909DB40090CB
:1001B0009DB400909DB400909DB400909DB40090BB
:1001C0009DB400909DB4009000000000000000006D
:1001D00000000000000000009DB40090000000003E
:1001E000000000000000000000000000000000000F
:1001F00000000000000000009DB400909DB400903D
:100200009DB400909DB40090000000009DB400904B
:100210009DB400909DB400909DB400909DB400905A
:100220009DB400909DB400909DB40090000000002B
:100230009DB400909DB40090000000009DB400901B
:100240009DB400909DB400909DB4009071200090EA
:100250009DB400909DB400909DB400909DB400901A
:100260009DB400909DB400909DB400909DB400900A
:100270009DB400909DB400909DB4009000000000DB
:100280009DB400909DB40090000000009DB40090CB
:10029000000000009DB400909DB400909DB40090BB
:0C02A0009DB400909DB400909DB40090AF
:1002B00001F0FF01102A2BDB10F0070F08D010F817
:1002C000013B013A8B422DD010F0070F42B3F6D11B
:1002D000F0B441EA012141EA014122F007047FF034
:1002E00000070023F0E80256083C85EA010586EA8B
:1002F000010685FA47F5A3FA87F586FA47F6A5FAC7
:1003000087F68EB9EED1F0BC01F0FF0102F00702D2
:1003100032B110F8013B013A83EA010313B1F8D17D
:100320000020704701387047002D06BF354603385E
:10033000073815F0010F07D1013015F4807F02BF97
:10034000013015F4C03F0130F0BC0138704700BFE8
:10035000034613F8012B002AFBD1181A0138704705
:1003600081F0004102E000BF83F0004330B54FEA66
:1003700041044FEA430594EA050F08BF90EA020FD3
:100380001FBF54EA000C55EA020C7FEA645C7FEA66
:10039000655C00F0E2804FEA5454D4EB5555B8BF89
:1003A0006D420CDD2C4480EA020281EA030382EAFA
:1003B000000083EA010180EA020281EA0303362D8C
:1003C00088BF30BD11F0004F4FEA01314FF4801C5F
:1003D0004CEA113102D0404261EB410113F0004F71
:1003E0004FEA03334CEA133302D0524263EB430328
:1003F00094EA050F00F0A780A4F10104D5F1200EC6
:100400000DDB02FA0EFC22FA05F2801841F1000120
:1004100003FA0EF2801843FA05F359410EE0A5F1F4
:1004200020050EF1200E012A03FA0EFC28BF4CF025
:10043000020C43FA05F3C01851EBE37101F00045DB
:1004400007D54FF0000EDCF1000C7EEB00006EEBE8
:100450000101B1F5801F1BD3B1F5001F0CD3490872
:100460005FEA30004FEA3C0C04F101044FEA4452C9
:1004700012F5800F80F09A80BCF1004F08BF5FEA50
:10048000500C50F1000041EB045141EA050130BD30
:100490005FEA4C0C404141EB0101013C28BFB1F542
:1004A000801FE9D291F0000F04BF01460020B1FA8D
:1004B00081F308BF2033A3F10B03B3F120020CDA60
:1004C0000C3208DD02F1140CC2F10C0201FA0CF03E
:1004D00021FA02F10CE002F11402D8BFC2F1200CA3
:1004E00001FA02F120FA0CFCDCBF41EA0C01904059
:1004F000E41AA2BF01EB0451294330BD6FEA0404A2
:100500001F3C1CDA0C340EDC04F11404C4F120028C
:1005100020FA04F001FA02F340EA030021FA04F39E
:1005200045EA030130BDC4F10C04C4F1200220FAF5
:1005300002F001FA04F340EA0300294630BD21FA33
:1005400004F0294630BD94F0000F83F4801306BFF9
:1005500081F480110134013D4EE77FEA645C18BFED
:100560007FEA655C29D094EA050F08BF90EA020F84
:1005700005D054EA000C04BF1946104630BD91EA7C
:10058000030F1EBF0021002030BD5FEA545C05D17F
:100590004000494128BF41F0004130BD14F58004BE
:1005A0003CBF01F5801130BD01F0004545F0FE4132
:1005B00041F470014FF0000030BD7FEA645C1ABF67
:1005C000194610467FEA655C1CBF0B46024650EA9E
:1005D000013406BF52EA033591EA030F41F40021CA
:1005E00030BD00BF90F0000F04BF0021704730B550
:1005F0004FF4806404F132044FF000054FF0000125
:1006000050E700BF90F0000F04BF0021704730B5E5
:100610004FF4806404F1320410F0004548BF4042BA
:100620004FF000013EE700BF42004FEAE2014FEA0F
:1006300031014FEA02701FBF12F07F4393F07F4FEA
:1006400081F06051704732F07F4208BF704793F0ED
:100650007F4F04BF41F40021704730B54FF4607400
:1006600001F0004521F000411CE700BF50EA010203
:1006700008BF704730B54FF000050AE050EA0102AC
:1006800008BF704730B511F0004502D5404261EB1C
:1006900041014FF4806404F132045FEA915C3FF45D
:1006A000D8AE4FF003025FEADC0C18BF03325FEAFA
:1006B000DC0C18BF033202EBDC02C2F1200300FAAB
:1006C00003FC20FA02F001FA03FE40EA0E0021FAD0
:1006D00002F11444BDE600BF70B54FF0FF0C4CF4BE
:1006E000E06C1CEA11541DBF1CEA135594EA0C0F70
:1006F00095EA0C0F00F0DEF82C4481EA030621EAAB
:100700004C5123EA4C5350EA013518BF52EA0335E5
:1007100041F4801143F4801338D0A0FB02CE4FF097
:100720000005E1FB02E506F00042E0FB03E54FF0C7
:100730000006E1FB03569CF0000F18BF4EF0010EBF
:10074000A4F1FF04B6F5007F64F5407404D25FEABB
:100750004E0E6D4146EB060642EAC62141EA55516E
:100760004FEAC52040EA5E504FEACE2EB4F1FD0CB0
:1007700088BFBCF5E06F1ED8BEF1004F08BF5FEA2E
:10078000500E50F1000041EB045170BD06F00046E0
:1007900046EA010140EA020081EA0301B4EB5C048D
:1007A000C2BFD4EB0C0541EA045170BD41F4801185
:1007B0004FF0000E013C00F3AB8014F1360FDEBFAA
:1007C000002001F0004170BDC4F10004203C35DA86
:1007D0000C341BDC04F11404C4F1200500FA05F309
:1007E00020FA04F001FA05F240EA020001F00042AA
:1007F00021F0004110EBD37021FA04F642EB060120
:100800005EEA430E08BF20EAD37070BDC4F10C0449
:10081000C4F1200500FA04F320FA05F001FA04F20D
:1008200040EA020001F0004110EBD37041F10001F9
:100830005EEA430E08BF20EAD37070BDC4F1200504
:1008400000FA05F24EEA020E20FA04F301FA05F26C
:1008500043EA020321FA04F001F0004121FA04F214
:1008600020EA020000EBD3705EEA430E08BF20EAE4
:10087000D37070BD94F0000F0FD101F0004640001E
:1008800041EB010111F4801F08BF013CF7D041EAA0
:10089000060195F0000F18BF704703F000465200A4
:1008A00043EB030313F4801F08BF013DF7D043EA75
:1008B0000603704794EA0C0F0CEA135518BF95EA2B
:1008C0000C0F0CD050EA410618BF52EA4306D1D1B2
:1008D00081EA030101F000414FF0000070BD50EAD1
:1008E000410606BF1046194652EA430619D094EA5B
:1008F0000C0F02D150EA013613D195EA0C0F05D145
:1009000052EA03361CBF104619460AD181EA030198
:1009100001F0004141F0FE4141F470014FF0000050
:1009200070BD41F0FE4141F4780170BD70B54FF0EB
:10093000FF0C4CF4E06C1CEA11541DBF1CEA13556B
:1009400094EA0C0F95EA0C0F00F0A7F8A4EB05044D
:1009500081EA030E52EA03354FEA013100F0888044
:100960004FEA03334FF0805545EA131343EA12630D
:100970004FEA022245EA111545EA10654FEA0026C2
:100980000EF000419D4208BF964244F1FD0404F57B
:10099000407402D25B084FEA3202B61A65EB0305D7
:1009A0005B084FEA32024FF480104FF4002CB6EB94
:1009B000020E75EB030E22BFB61A754640EA0C0014
:1009C0005B084FEA3202B6EB020E75EB030E22BF54
:1009D000B61A754640EA5C005B084FEA3202B6EB95
:1009E000020E75EB030E22BFB61A754640EA9C0054
:1009F0005B084FEA3202B6EB020E75EB030E22BF24
:100A0000B61A754640EADC0055EA060E18D04FEAE1
:100A1000051545EA16754FEA06164FEAC30343EA81
:100A200052734FEAC2025FEA1C1CC0D111F4801F4E
:100A30000BD141EA00014FF000004FF0004CB6E747
:100A400011F4801F04BF01430020B4F1FD0C88BFE6
:100A5000BCF5E06F3FF6AFAEB5EB030C04BFB6EBF1
:100A6000020C5FEA500C50F1000041EB045170BDE4
:100A70000EF0004E4EEA113114EB5C04C2BFD4EB11
:100A80000C0541EA045170BD41F480114FF0000E95
:100A9000013C90E645EA060E8DE60CEA135594EA11
:100AA0000C0F08BF95EA0C0F3FF43BAF94EA0C0F14
:100AB0000AD150EA01347FF434AF95EA0C0F7FF489
:100AC00025AF104619462CE795EA0C0F06D152EADD
:100AD00003353FF4FDAE1046194622E750EA4106C1
:100AE00018BF52EA43067FF4C5AE50EA41047FF4D2
:100AF0000DAF52EA43057FF4EBAE12E74FF0FF3C37
:100B000006E000BF4FF0010C02E000BF4FF0010C07
:100B10004DF804CD4FEA410C7FEA6C5C4FEA430C80
:100B200018BF7FEA6C5C1BD001B050EA410C0CBFCF
:100B300052EA430C91EA030F02BF90EA020F002031
:100B4000704710F1000F91EA030F58BF994208BF98
:100B500090422CBFD8176FEAE37040F00100704755
:100B60004FEA410C7FEA6C5C02D150EA013C07D1AC
:100B70004FEA430C7FEA6C5CD6D152EA033CD3D0F7
:100B80005DF8040B704700BF8446104662468C46F1
:100B90001946634600E000BF01B5FFF7B7FF002824
:100BA00048BF10F1000F01BD4DF808EDFFF7F4FF4D
:100BB0000CBF012000205DF808FB00BF4DF808EDD8
:100BC000FFF7EAFF34BF012000205DF808FB00BFFB
:100BD0004DF808EDFFF7E0FF94BF012000205DF81D
:100BE00008FB00BF4DF808EDFFF7CEFF94BF0120D2
:100BF00000205DF808FB00BF4DF808EDFFF7C4FFCB
:100C000034BF012000205DF808FB00BF4FEA410C13
:100C10007FEA6C5C02D150EA013C0AD14FEA430CF6
:100C20007FEA6C5C02D152EA033C02D14FF0000033
:100C300070474FF0010070474FEA410212F5001271
:100C400015D211D56FF47873B3EB625212D94FEA13
:100C5000C12343F0004343EA505311F0004F23FAFD
:100C600002F018BF404270474FF00000704750EA52
:100C7000013005D111F0004008BF6FF0004070470F
:100C80004FF00000704700BF53B94AB9002908BFB0
:100C900000281CBF4FF0FF314FF0FF3000F0E2B8EA
:100CA000ADF1080C6DE904CE10F002FBDDF804E0B4
:100CB000DDE9022304B0704700F1340191E8380007
:100CC0009C46A6464CF8045D90E8FF0FE54600BD43
:100CD00090EC210B704700BF80EC210B704700BFE8
:100CE00090EC200B704700BF80EC200B704700BFDA
:100CF000D0EC200B704700BFC0EC200B704700BF4A
:100D0000F0EC0201F0EC0211F0EC0221F0EC023107
:100D1000F0EC0241F0EC0251F0EC0261F0EC0271F7
:100D2000F0EC0281F0EC0291F0EC02A1F0EC02B1E7
:100D3000F0EC02C1F0EC02D1F0EC02E1F0EC02F1D7
:100D4000704700BFE0EC0201E0EC0211E0EC022190
:100D5000E0EC0231E0EC0241E0EC0251E0EC026137
:100D6000E0EC0271E0EC0281E0EC0291E0EC02A127
:100D7000E0EC02B1E0EC02C1E0EC02D1E0EC02E117
:100D8000E0EC02F1704700BFB0FC0181B0FC0191C2
:100D9000B0FC01A1B0FC01B1704700BFA0FC018113
:100DA000A0FC0191A0FC01A1A0FC01B1704700BF13
:100DB000EC4600B52DE900502DE9FF1F4FF0000370
:100DC0002DE90C0001A910F025FDDDF840E012B07E
:100DD000704700BFEC4600B52DE900502DE9FF1F1C
:100DE0004FF000032DE90C0001A910F04FFDDDF8D4
:100DF00040E012B0704700BFEC4600B52DE900504E
:100E00002DE9FF1F4FF000032DE90C0001A910F0A0
:100E10005DFDDDF840E012B0704700BFEC4600B564
:100E20002DE900502DE9FF1F4FF000032DE90C00C4
:100E300001AB10F023FDDDF840E012B0704700BFB9
:100E4000EC4600B52DE900502DE9FF1F4FF00003DF
:100E50002DE90C0001AA10F08DFDDDF840E012B084
:100E6000704700BF704700BF0348044B834202D065
:100E7000034B03B118477047F0010024F001002430
:100E8000000000000548064B1B1AD90F01EBA30117
:100E9000491002D0034B03B118477047F0010024FA
:100EA000F00100240000000010B5064C237843B97F
:100EB000FFF7DAFF044B13B10448AFF300800123BE
:100EC000237010BD00050024000000006022019086
:100ED00008B5054B1BB105490548AFF30080BDE8D7
:100EE0000840FFF7CFBF00BF00000000040500244A
:100EF000602201902DE9F04F8DB0002407940894F2
:100F000009940A940B94724BD3F8402142F01002DA
:100F1000C3F84021D3F8402102F010020192019A57
:100F2000D3F8402142F00402C3F84021D3F8402115
:100F300002F004020292029AD3F8402142F08002A9
:100F4000C3F84021D3F8402102F080020392039AB3
:100F5000D3F8402142F00102C3F84021D3F84021E8
:100F600002F001020492049AD3F8402142F00202F6
:100F7000C3F84021D3F8402102F002020592059AFD
:100F8000D3F8402142F00802C3F84021D3F84031A1
:100F900003F008030693069BDFF840B122464AF6A9
:100FA0000841584602F043FF224642F210014948E8
:100FB00002F03DFF484E22462221304602F037FF24
:100FC000DFF81C91224640F26171484602F02FFF83
:100FD0000423079302250895099403270A974FF0E5
:100FE000090ACDF82CA007A9584602F009FE4AF6D6
:100FF000084307934FF00108CDF8208009940A9424
:1010000007A9584602F0FCFD42F210030793CDF801
:10101000208009940A9407A92E4802F0F1FD2223AA
:101020000793CDF8208009940A9407A9304602F06E
:10103000E7FD04230793089509940A97CDF82CA09F
:1010400007A9304602F0DCFD4FF470430793089483
:10105000099507A9304602F0D3FD40F2617307936A
:10106000CDF8208009940A9407A9484602F0C8FDEB
:101070004FF460530793089509940A97CDF82CA074
:1010800007A9484602F0BCFD4FF48073079308950A
:1010900009940A940B94DFF84C8007A9404602F0AB
:1010A000AFFD4FF4004307930894099507A9404604
:1010B00002F0A6FD40230793089509940A970A2396
:1010C0000B9307A9304602F09BFD0DB0BDE8F08FF1
:1010D0000044025800080258000402580010025848
:1010E000000C02580000025800B583B00B4BD3F837
:1010F000382142F00102C3F83821D3F8383103F027
:1011000001030193019B002206210F2001F002FD43
:101110000F2001F00FFD03B05DF804FB00440258FE
:1011200000B583B00B4BD3F8402142F40012C3F852
:101130004021D3F8403103F400130193019B0022B6
:101140000521832001F0E6FC832001F0F3FC03B0CD
:101150005DF804FB0044025808B5012008F026F9A8
:10116000FBE708B50368B3F1804F00D008BD01F07C
:101170000FF8FBE772B6FEE708B50848084B0360B6
:101180000023436083604FF48042C2600361436187
:1011900005F089FF00B908BDFFF7ECFF980D0024AA
:1011A0000070005208B51448144B03604FF48003DC
:1011B0004360002383600722C260036143614FF0F4
:1011C000806282614FF04052C26103624362836277
:1011D000C3624FF0804242638363C363036443642A
:1011E0008364C36403654365836506F04DF800B905
:1011F00008BDFFF7BFFF00BF100D00240030014005
:1012000008B51548154B03604FF4800343604FF455
:10121000003383600723C3600023036143614FF001
:10122000806282614FF08052C261036243628362D6
:10123000C3624FF0804242638363C36303644364C9
:101240008364C36403654365836506F01DF800B9D4
:1012500008BDFFF78FFF00BF880C00240034014059
:1012600000B58BB000230793089309930093019373
:10127000029303930493059306931D481D4A02604D
:1012800043608360C36004220261037543750122D9
:101290008261037743628362C3620363436380F8BE
:1012A000383001F061FAE0B90023079307A910482C
:1012B00001F05AFBB8B9104B0093062301930023A9
:1012C000029340F2FF7203920422049205938DF878
:1012D00019306946064800F0AFFF30B90BB05DF831
:1012E00004FBFFF747FFFFF745FFFFF743FF00BF92
:1012F000840F0024002002400001802100B589B045
:101300000023019302930393049305930693079399
:101310001848194A026043608360C3600422026176
:101320000375437501228261037743628362C3625E
:101330000363436380F8383001F016FAB0B90F4BFD
:101340000193062302930023039340F2FF72049259
:101350000422059206938DF81D300DEB020105481D
:1013600000F06AFF20B909B05DF804FBFFF702FF47
:10137000FFF700FF200F0024002102400002B025EB
:1013800008B51148114B0360114B43600023836083
:101390000122C260036143618361C361036202F0A1
:1013A00055FD50B90021084802F0AEFD38B90021C2
:1013B000054802F0D7FD20B908BDFFF7DBFEFFF7B7
:1013C000D9FEFFF7D7FE00BF280E002400580040CA
:1013D000FFCCB02008B51548154B03604FF48003CF
:1013E00043604FF4003383600723C360002303612D
:1013F00043614FF0806282614FF04052C2610362EC
:1014000043628362C3624FF0804242638363C3637B
:10141000036443648364C36403654365836505F0C3
:1014200033FF00B908BDFFF7A5FE00BF000C002484
:101430000014005808B51548154B03604FF4E1330C
:10144000436000238360C36003610C2242618361B7
:10145000C36103624362836207F041F970B90021FE
:101460000A4807F0B4F958B90021084807F0D4F940
:1014700040B9064807F08CF930B908BDFFF77AFE8D
:10148000FFF778FEFFF776FEFFF774FE300A0024C0
:101490000010014008B50548054B03600023436078
:1014A00005F0DAF800B908BDFFF764FE140E002459
:1014B0000018024808B50B480B4B03600923436032
:1014C000022202610023C3608261C361036243623E
:1014D000C3620363436302F071FD00B908BDFFF707
:1014E00049FE00BF240500240000044008B511484F
:1014F000114B0360114B4360002383600122C260E3
:10150000036143618361C361036202F09FFC50B9D0
:101510000021084802F0F8FC38B90021054802F023
:1015200021FD20B908BDFFF725FEFFF723FEFFF7D9
:1015300021FE00BF7C0E002400540040FFCCB020F0
:1015400008B50A480A4B036040F2171343600023B2
:1015500083604FF6FF72C26003614361836106F0EE
:10156000EBFB00B908BDFFF705FE00BFC40A00246D
:101570000048014008B50A480A4B03600023436055
:101580008360C3600361436183610362436283627A
:10159000C362036301F0D2FA00B908BDFFF7EAFDA8
:1015A000D00E00240000024800B59DB04C2200215E
:1015B00009A80DF011FC2022002101A80DF00CFC5F
:1015C0002B4B4FF0FF32C3F8B020022002F0A8FDF1
:1015D00000230093274B9A6942F440429A619B6929
:1015E00003F440430093009B224B9B6913F4005F7C
:1015F000FAD0232309934FF480330A9301230C93E9
:1016000040220D920F9302231293139305221492FA
:101610007022159216930422179218930823199397
:1016200000231A931B9309A802F0ACFDD8B93F23FD
:101630000193032302930023039304934023059310
:1016400006934FF4806207920893072101A803F0E4
:1016500017FA50B94FF480220021084603F0C4F86D
:101660001DB05DF804FBFFF785FDFFF783FD00BFAC
:10167000004402580048025800B5B1B0C022002111
:1016800068460DF0A9FB144A0023CDE90023192177
:101690000291AC23039303230493042205920222B4
:1016A00006920A9190210B910C920D930E934FF498
:1016B00080331A93082221924FF4001224922B9324
:1016C0004FF080532C93684603F0A0FC10B931B062
:1016D0005DF804FBFFF74EFD01600C0008B500F05B
:1016E00029FDFFF761FFFFF7C7FFFFF703FCFFF7D7
:1016F000FBFCFFF715FDFFF73FFDFFF753FDFFF77D
:101700007FFDFFF7ADFDFFF7F9FDFFF739FEFFF7AE
:1017100061FEFFF78FFEFFF7BDFEFFF7CBFEFFF781
:10172000E5FEFFF70DFFFFF725FF07F0B3FD0E4ABB
:1017300000210E4807F0DCFD0D4B18600D4A00211A
:101740000D4807F0D5FD0D4B186009F0C1FD07F0FD
:10175000B3FD09F0E7FD0821094802F06EFB4FF4E4
:10176000FA7000F027FDF6E7AC22019059110090C5
:101770002005002488220190B9B200901C050024A5
:101780000010025800B583B00A4BD3F8542142F040
:101790000202C3F85421D3F8543103F00203019339
:1017A000019B00220F216FF0010001F0B3F903B09B
:1017B0005DF804FB0044025810B58CB00023079379
:1017C000089309930A930B930368434A934204D006
:1017D000424A934240D00CB010BD414A13680133D5
:1017E0001360012B2AD03F4BD3F8402142F0040272
:1017F000C3F84021D3F8402102F004020292029A79
:10180000D3F8402142F00202C3F84021D3F840311E
:1018100003F002030393039B2023079303240894FC
:1018200007A9314802F0ECF901230793089400233B
:10183000099307A92D4802F0E3F9CCE7294BD3F827
:10184000382142F02002C3F83821D3F8383103F0B0
:1018500020030193019BC6E7214A136801331360FB
:10186000012B2AD01F4BD3F8402142F00402C3F8C9
:101870004021D3F8402102F004020592059AD3F8E2
:10188000402142F00202C3F84021D3F8403103F076
:1018900002030693069B202307930324089407A9B9
:1018A000114802F0ADF9012307930894002309932E
:1018B00007A90E4802F0A4F98DE70A4BD3F83821A6
:1018C00042F02002C3F83821D3F8383103F0200366
:1018D0000493049BC6E700BF0020024000210240A1
:1018E000E80F00240044025800080258000402587F
:1018F00070B58CB000230793089309930A930B9358
:101900000268414B9A4201D00CB070BD3F4BD3F8F6
:101910003C2142F00102C3F83C21D3F83C2102F003
:1019200001020192019AD3F8402142F01002C3F85B
:101930004021D3F8402102F010020292029AD3F81B
:10194000402142F00102C3F84021D3F8402102F0C7
:1019500001020392039AD3F8402142F00402C3F833
:101960004021D3F8402102F004020492049AD3F8F3
:10197000402142F00802C3F84021D3F8402102F090
:1019800008020592059AD3F8402142F00202C3F8FA
:101990004021D3F8403103F002030693069B7323E2
:1019A0000793022608960D250B9507A9184802F003
:1019B00027F9502307930896002409940A940B955D
:1019C00007A9144802F01CF9C0230793089609944C
:1019D0000A940B9507A9104802F012F908230793FF
:1019E000089609940A940B9507A90C4802F008F987
:1019F00080230793089609940A940B9507A9084831
:101A000002F0FEF880E700BF0000024800440258E0
:101A1000001002580000025800080258000C02583A
:101A20000004025810B5BAB0044600213591369131
:101A3000379138913991C02204A80DF0CDF923686F
:101A4000364A934204D0364A934234D03AB010BD5D
:101A500008220023CDE9042304A803F0D7FA38BBF9
:101A6000304CD4F8403143F00203C4F84031D4F88C
:101A7000403103F002030093009B4FF44073359311
:101A8000122336930023379338930423399335A9CF
:101A9000254802F0B5F8D4F8483143F40013C4F8EF
:101AA0004831D4F8483103F400130193019BCDE78A
:101AB000FFF760FBD4E708220023CDE9042304A844
:101AC00003F0A4FA38BB174CD4F8403143F00203BA
:101AD000C4F84031D4F8403103F002030293029B72
:101AE0004FF4406335931223369300233793389392
:101AF0000423399335A90C4802F082F8D4F8483110
:101B000043F48003C4F84831D4F8483103F4800327
:101B10000393039B9AE7FFF72DFBD4E700540040A3
:101B200000580040004402580004025810B5B2B0FA
:101B30000446C022002102A80DF04EF922680F4B86
:101B40009A4201D032B010BD4FF400320023CDE9EB
:101B5000022302A803F05AFA68B9094BD3F83C21D2
:101B600042F04002C3F83C21D3F83C3103F040037B
:101B70000193019BE6E7FFF7FDFAEEE70018024844
:101B800000440258F0B5BBB00446002135913691AF
:101B9000379138913991C02204A80DF01DF92268BF
:101BA000284B9A4201D03BB0F0BD4FF48032002365
:101BB000CDE9042304A803F029FA00283ED1224BE2
:101BC000D3F8342142F48032C3F83421D3F83421DD
:101BD00002F480320192019AD3F8402142F00402CB
:101BE000C3F84021D3F8402102F004020292029A85
:101BF000D3F8402142F00802C3F84021D3F8403125
:101C000003F008030393039B4FF4F8533593022723
:101C1000369700263796032538950C24399435A934
:101C20000A4801F0EDFF042335933697379638952F
:101C3000399435A9064801F0E3FFB4E7FFF79AFAB3
:101C4000BDE700BF0070005200440258000802586F
:101C5000000C025870B5BEB00446002139913A918B
:101C60003B913C913D91C02208A80DF0B5F8236846
:101C7000704A934208D0704A93424FD06F4A9342C1
:101C800000F093803EB070BD4FF480520023CDE948
:101C9000082308A803F0BAF900283CD1684BD3F810
:101CA000502142F48052C3F85021D3F8502102F45D
:101CB00080520192019AD3F8402142F00802C3F801
:101CC0004021D3F8402102F008020292029AD3F890
:101CD000402142F00202C3F84021D3F8403103F022
:101CE00002030393039B8023399302263A96002430
:101CF0003B943C9405253D9539A9524801F080FF5D
:101D0000182339933A963B943C943D9539A94E4813
:101D100001F076FFB6E7FFF72DFABFE7484BD3F89F
:101D2000502142F40052C3F85021D3F8502102F45C
:101D300000520492049AD3F8402142F01002C3F8F2
:101D40004021D3F8403103F010030593059B4FF475
:101D5000A043399302233A9305233D9339A93B4885
:101D600001F04EFF3A483B4B03605423436040234D
:101D700083600023C3604FF480620261436183612A
:101D8000C3610362436201F061F858B9304BA36745
:101D90009C6300220521542000F0BCFE542000F07A
:101DA000C9FE6FE7FFF7E6F9F0E7254BD3F85421BA
:101DB00042F02002C3F85421D3F8542102F020024B
:101DC0000692069AD3F8402142F00102C3F840215E
:101DD000D3F8403103F001030793079BA023399305
:101DE00002233A9308233D9339A91B4801F008FFC9
:101DF0001A481B4B03600C2343604023836000237D
:101E0000C3604FF48062026143618361C361036216
:101E100001F01CF858B9114BA3679C6300220521FF
:101E2000562000F077FE562000F084FE2AE7FFF7E8
:101E3000A1F9F0E7003001400034014000140058DF
:101E400000440258000C02580004025800100258C6
:101E5000880B00247000024000000258100B002480
:101E60003054025802680A4B9A4200D0704782B040
:101E7000084BD3F8502142F48022C3F85021D3F804
:101E8000503103F480230193019B02B0704700BFDF
:101E9000004801400044025800B589B00023039374
:101EA0000493059306930793026803F1804303F5B7
:101EB00088339A4202D009B05DF804FB124BD3F884
:101EC000502142F01002C3F85021D3F8502102F003
:101ED00010020192019AD3F8402142F00102C3F8A6
:101EE0004021D3F8403103F001030293029B4FF4E9
:101EF000C0630393022304930723079303A90348B2
:101F000001F07EFED7E700BF0044025800000258EF
:101F100010B588B0002303930493059306930793A9
:101F20000268164B9A4201D008B010BD02F022F9A7
:101F3000134CD4F8403143F00103C4F84031D4F8D5
:101F4000403103F001030193019B4FF4C05303930D
:101F50000223049300230593069303A9094801F083
:101F60004FFED4F8383143F00073C4F83831D4F858
:101F7000383103F000730293029BD5E70000044060
:101F800000440258000002580F2801D90120704770
:101F900010B58AB00446002201461C2000F0BAFDAC
:101FA0001C2000F0C7FD1B4B1C601B4BD3F84821C5
:101FB00042F00102C3F84821D3F8483103F001038D
:101FC0000093009B01A902A802F0EAFE079BC3B997
:101FD00002F0C2FE0346114AA2FB03239B0C013B05
:101FE0000F484FF08042026040F2E732C260436027
:101FF00000230361836005F09FFE30B101200AB029
:1020000010BD02F0A9FE4300E5E7054805F0F8FC25
:10201000F5E700BF0C0000240044025883DE1B4398
:10202000EC0F0024FEE7FEE7FEE7FEE7FEE7704761
:1020300008B5024801F02EFA08BD00BF880B002445
:1020400008B5024805F028FD08BD00BFEC0F0024CC
:1020500008B5024805F05CFB08BD00BF880C0024F1
:1020600008B5024805F054FB08BD00BF000C002471
:1020700008B5024801F00EFA08BD00BF100B00249D
:10208000244AD2F8883043F47003C2F88830224BD7
:102090001B6803F00F03022B06D81F4A136823F0B6
:1020A0000F0343F0030313601C4B1A6842F0010254
:1020B0001A6000221A611968194A0A401A60164B00
:1020C0001B6813F00C0F06D0134A136823F00F039C
:1020D00043F003031360114B00229A61DA611A6224
:1020E000104999621049D962104919635A6399637A
:1020F000DA6319645A64196821F4802119601A6638
:102100000B4B43F2D2021A60024B4FF010429A601E
:102110009A60704700ED00E0002000520044025831
:102120007FEDF6EA000202020000FF0180020101D9
:102130000040005210B5032000F0DAFC02F0A6FBCC
:102140000F498B69C3F303230E4AD35C03F01F03CB
:10215000D8408B6903F00F03D35C03F01F0320FA10
:1021600003F3094A1360094B18600F20FFF70CFFB7
:1021700010B10124204610BD0446FFF703FBF9E728
:1021800000440258D02201900000002404000024E2
:10219000034B1B78034A11680B441360704700BF60
:1021A0000800002438100024014B1868704700BF55
:1021B0003810002438B50446FFF7F6FF0546B4F1A1
:1021C000FF3F02D0044B1B781C44FFF7EDFF401B80
:1021D000A042FAD338BD00BF0800002410B430304C
:1021E0000B0A9B0003F00C03C45801F01F014FF0D1
:1021F0001F0C0CFA01FC24EA0C0CC2F384628A4026
:102200004CEA0202C2505DF8044B704710B414301F
:102210004B0E9B0003F00403C458C1F304514FF06C
:10222000070C0CFA01FC24EA0C0C8A404CEA02026E
:10223000C2505DF8044B7047F0B583B000230193A2
:1022400090F85030012B00F0FD8104460D4601232B
:1022500080F850300268936813F0040F09D0436D82
:1022600043F0200343650120002384F8503003B07D
:10227000F0BD0B68C3F3130100293CD1C3F38463A1
:1022800001219940D3690B43D3612A6869682068AA
:10229000FFF7A4FF2068836813F0040300D0012334
:1022A000826812F0080200D0012252EA03062ED002
:1022B0002268936813F0010F40F0C0812B68E86832
:1022C000D2F8C010C3F3130621EA060100F0180685
:1022D000A148F0400340C3F313030B43C2F8C030DE
:1022E000EA689E4B9A4200F08F802A68002AC0F26A
:1022F00037810020B8E793FAA3F333B1B3FA83F33D
:1023000003F01F0301219940BCE72023F8E7AA68E6
:102310002968FFF77BFF2368DA6812F0100F31D1CC
:102320006A69D968C1F3820149008A402F69042F84
:1023300036D02868603353F8271001F0004100F0D0
:10234000F84002430A4343F82720236828696A7E3D
:10235000012A1FD03146603353F8202022F000427A
:102360000A4343F8202021682A692B7E012B14D0D0
:102370000B6923F4F04302F01F0206FA02F2134342
:102380000B6195E76A69D968890801F00401490081
:102390008A40CBE74FF00041DDE74FF40066E7E706
:1023A0001A6E02F0F8422968B2EB816F1DD02268E4
:1023B000536E03F0F8432968B3EB816F1AD022689B
:1023C000936E03F0F8432968B3EB816F17D022684E
:1023D000D36E03F0F8432968B3EB816F7FF468AFE5
:1023E000D36E23F00043D36662E71A6E22F00042F8
:1023F0001A66DCE7536E23F000435366DFE7936E03
:1024000023F000439366E2E720682B68C3F31306CA
:1024100026BB9A0E013202F01F02092A8CBF00224D
:102420000122002A51D046BB990E0131890601F0E4
:10243000F84176BB9F0E013707F01F070122BA4013
:102440001143A6BB9B0E013303F01F0303EB4303B1
:102450001B051943AA68FFF7D9FE46E793FAA3F2D2
:102460004AB1B2FA82F2013202F01F02092A8CBF8D
:1024700000220122D5E72022F5E793FAA3F131B13A
:10248000B1FA81F10131890601F0F841D1E720214B
:10249000F8E793FAA3F242B1B2FA82F2013202F003
:1024A0001F02012707FA02F2CAE72022F6E793FA91
:1024B000A3F343B1B3FA83F3013303F01F0303EB38
:1024C00043031B05C5E72023F6E7CEB9990E01317A
:1024D000890601F0F841FEB99F0E013707F01F078A
:1024E0000122BA4011432EBB9B0E013303F01F03A0
:1024F00003EB43031E3B1B0543F000731943A9E79D
:1025000093FAA3F131B1B1FA81F10131890601F0F9
:10251000F841E0E72021F8E793FAA3F242B1B2FADA
:1025200082F2013202F01F02012707FA02F2D9E714
:102530002022F6E793FAA3F35BB1B3FA83F30133F6
:1025400003F01F0303EB43031E3B1B0543F0007323
:10255000D4E72023F3E700BFFFFF0F000000FF4791
:10256000394B986800F0E075A3F54073996811F055
:10257000010100D00121354B9B6813F0010300D00D
:1025800001230B4354D1324B9A4207D0314B9A422C
:1025900028D0314B9A4238D0002065E610F4000F65
:1025A000F4D12268294B9A4201D000205CE645F420
:1025B000000325498A6822F0E07213438B60274BA1
:1025C0001B689B09264AA2FB03239B0901335B007E
:1025D000019302E0019B013B0193019B002BF9D188
:1025E000002041E610F0807FD3D12268174B9A4239
:1025F00001D0002038E645F0807313498A6822F044
:10260000E07213438B6000202EE610F4800F17D188
:1026100022680E4B9A4201D0002025E645F4800343
:1026200009498A6822F0E07213438B6000201BE6A0
:10263000636D43F020036365012015E6002013E677
:10264000002011E6022012E6002302400021024091
:10265000000084CB0040C0BA0000B8CF04000024C2
:10266000632D3E0510B504463B4B9B6813F4403F79
:102670001AD002F04FFB6368B3F5003F0ED0B3F5FC
:10268000403F0FD0B3F5803F08D0344B984246D836
:102690002268936823F44073936010BD1B0CB0FB59
:1026A000F3F0F2E78008F0E74FF40020002103F098
:1026B000CFFC6368B3F5101F2DD022D8B3F5E01F0F
:1026C00027D004D9B3F5001FDFD14009DDE7B3F50A
:1026D000801F0DD006D9B3F5A01F09D0B3F5C01FD8
:1026E00006D0D2E7B3F5002F02D0B3F5402F04D1C6
:1026F0009B0C5B00B0FBF3F0C7E7B3F5802FF7D07E
:10270000C3E7B3F5201F08D0B3F5301FBDD1000AD1
:10271000BBE70009B9E78009B7E7C009B5E7104B87
:10272000984207D82268936823F4407343F4807377
:102730009360B2E70B4B984207D82268936823F462
:10274000407343F400739360A7E72268936843F4EF
:1027500040739360A1E700BF0023024021BCBE008C
:1027600041787D0181F0FA0230B583B000230193F6
:10277000002800F0E3800446436DEBB123689A68BB
:1027800012F0005F03D099686D4A0A409A6023688E
:102790009A6812F0805F1CD199686A4A0A4042F038
:1027A00080529A60684B1B689B09684AA2FB03230E
:1027B0009B090133019309E0FEF7FEFF0023A365A7
:1027C00084F85030DAE7019B013B0193019B002B19
:1027D000F9D12268936813F0805F40F08580636DC3
:1027E00043F010036365A36D43F00103A365012566
:1027F000936813F0040300D00123616D11F0100FF2
:1028000040F09480002B40F09180636D23F481733D
:1028100043F002036365936813F0010F14D14C4B2E
:102820009A6812F0010200D001224A4B9B6813F013
:10283000010300D00123134306D1636846498A6827
:1028400022F47C1213438B60627D236B43EA423394
:10285000A2681343227F43EA0243012A46D0626AF8
:1028600022B102F47872A16A0A4313432168C8684E
:102870003A4A02401A43CA6021688A6812F0040288
:1028800000D001228B6813F0080300D0012313430A
:102890001BD1227DE36A43EA8232C868304B034091
:1028A0001343CB6094F83830012B24D0226813698D
:1028B00023F0010313612268136923F07043616BF5
:1028C0000B4313612046FFF7CDFEE368012B24D0B4
:1028D0002268136B23F00F031363636D23F003036C
:1028E00043F00103636526E0002581E7226A013A8F
:1028F00043EA4243B3E7206802691A4B1340E26B94
:10290000511E226C42EA0142616C0A43A16C0A43E7
:10291000134343F001030361CDE721680B6B23F000
:102920000F03A269013A13430B63D6E7636D43F0CB
:10293000100363650125284603B030BD0125FAE781
:10294000C0FFFF5FC0FFFF6F04000024632D3E0542
:1029500000200240002102400023024003C0F0FF9B
:10296000FCBFFFFF1EF800FC90F85020012A75D034
:1029700010B49BB00346012280F85020002216922A
:1029800017920068364A904231D000220192019A93
:10299000002A30D0926812F0040200D00122806830
:1029A00010F0040F4AD1002A48D10A6862B32D48BA
:1029B000826822F440424C6822438260284A906830
:1029C00010F0010000D00120274A926812F00102A5
:1029D00000D0012202433DD1224CA068234A02408C
:1029E0000868896801430A43A26000202BE002F5D1
:1029F00080720192CBE75A6D42F020025A650022A4
:102A000083F85020012021E016498A6822F44042D0
:102A10008A60134A916811F0010100D00121124A25
:102A2000926812F0010200D001220A4314D10D492C
:102A300088680E4A02408A60002004E05A6D42F025
:102A400020025A650120002283F850201BB05DF857
:102A5000044B70470020F6E70020F4E7022070479F
:102A6000002002400023024000210240E0F0FFFF6E
:102A7000002807DB00F01F02400901239340024AAF
:102A800042F82030704700BF00E100E0002804DB7E
:102A90000901C9B2044B1954704700F00F00090135
:102AA000C9B2024B1954704700E400E014ED00E095
:102AB00000B500F00700C0F1070CBCF1040F28BFFF
:102AC0004FF0040C031D062B0FD9C31E4FF0FF3E21
:102AD0000EFA0CF021EA000199400EFA03FE22EAF8
:102AE0000E0241EA02005DF804FB0023EEE700005D
:102AF0000649CB6823F4E0631B041B0C000200F4BE
:102B0000E0600343024A1A43CA60704700ED00E0E8
:102B10000000FA0510B50446054BD868C0F3022042
:102B2000FFF7C6FF01462046FFF7B0FF10BD00BF0C
:102B300000ED00E008B5FFF79BFF08BD002848D076
:102B400010B5044690F83530002B32D0022384F8BB
:102B50003530A3690BB100236362226811681E4BF4
:102B60000B40136022681168636860690343E06882
:102B7000034320690343A0680343A0690343206A19
:102B80000343606A0343A06A0343E06A0343206B84
:102B900003430B4313606368102B0DD02268D36886
:102BA00043F01E03D3600020E064012384F8353035
:102BB00010BDFEF79DFEC9E7237F627F43EA022333
:102BC000A27F43EA0243E17F226843EA0163936103
:102BD000E4E70120704700BF07F0E0FF03682749E2
:102BE000274A934218BF8B422FD0183293422CD0E1
:102BF0001832934229D01832934226D01832934289
:102C000023D01832934220D0183293421DD002F5BF
:102C10005672934219D01832934216D0183293420A
:102C200013D01832934210D0183293420DD018327C
:102C300093420AD01832934207D01832934204D0FC
:102C400023F0FF038365806D704710B4D9B210394B
:102C50000C4AA2FB0142C2F302120B4CA25CC265F9
:102C60005F2907D9094A1A4004328265806D5DF8F0
:102C7000044B7047054A1A408265F7E7100002408E
:102C800028000240ABAAAAAAE022019000FCFFFFA4
:102C900083699BB9836A012B0AD0022B02D00BB146
:102CA00000207047C36A13F0807F2AD1002070474C
:102CB000C36AB3F1C07F26D000207047B3F5005F30
:102CC0000AD0836A022B26D9032B26D1C36A13F0BC
:102CD000807F24D100207047836A032B03D8DFE86C
:102CE00003F01404140A00207047C36A13F0807FB5
:102CF0000DD100207047C36AB3F1C07F09D0002016
:102D00007047012070470120704701207047012063
:102D10007047012070470120704700207047012054
:102D20007047000003682149214A934218BF8B4233
:102D300027D01432934224D01432934221D014323B
:102D400093421ED0143293421BD01432934218D0B7
:102D50001432934215D0DAB2103A1649A1FB02128E
:102D6000120915491944A8291ED9144B13449B0074
:102D70000366134B436602F01F02012393408366F0
:102D80007047DBB2083B0F4AA2FB03230E4A02EB5B
:102D90001312920002660D4A4266C3F30413012225
:102DA00002FA03F3836670470832DEE708540258DC
:102DB0001C540258ABAAAAAAF0FBFDBF0082001067
:102DC00080080240CDCCCCCC00960016805802582A
:102DD00001794A1E072A2BD830B40368154D164CCA
:102DE000A34218BFAB4218D01434A34215D01434F8
:102DF000A34212D01434A3420FD01434A3420CD0F7
:102E00001434A34209D01434A34206D00B4B0B4414
:102E10009B00C3660A4B036705E00A4B0B449B000B
:102E2000C366094B036701239340436730BC704777
:102E3000704700BF085402581C5402583F820010CB
:102E4000400902403F9600164059025870B50446AA
:102E5000FFF7AAF9002C00F0D581054623686349E5
:102E6000634A934218BF8B420CBF0121002170D0EE
:102E7000183293426DD0183293426AD0183293427E
:102E800067D01832934264D01832934261D018321E
:102E900093425ED002F5567293425AD01832934252
:102EA00057D01832934254D01832934251D018322E
:102EB00093424ED0183293424BD01832934248D0AE
:102EC0001832934245D04B494B4A934218BF8B422C
:102ED00000F05081494A934200F04C8114329342F1
:102EE00000F048811432934200F04481143293423E
:102EF00000F040811432934200F03C81143293423E
:102F000000F038813E4A934200F0348114329342FB
:102F100000F030811432934200F02C81143293423D
:102F200000F028811432934200F02481143293423D
:102F300000F020811432934200F01C81143293423D
:102F400000F0188140236365032384F835300120A5
:102F50004AE0022284F83520002284F8342079BB2C
:102F6000284A93422CD01832934229D018329342E7
:102F700026D01832934223D01832934220D01832F0
:102F800093421DD002F55672934219D018329342E3
:102F900016D01832934213D01832934210D0183200
:102FA00093420DD0183293420AD01832934207D080
:102FB0001832934204D01A6822F001021A6003E02A
:102FC0001A6822F001021A6023681A6812F0010FD1
:102FD0001AD0FFF7E9F8431B052BF5D920236365C9
:102FE000032384F83530012070BD00BF100002407B
:102FF00028000240082C02481C2C0248302C0248B1
:1030000008540258400002401A687F491140A268E3
:10301000E06802432069024360690243A0690243F9
:10302000E0690243206A02430A43616A042900F00E
:1030300096806168A1F12905A1F13F00032888BFAE
:10304000052D0AD9A1F14700012806D9A1F14F00A9
:10305000032802D97439032901D842F480121A6076
:103060002668756925F00705636A1D43042B08D19E
:10307000A36A1D43E36A23B12046FFF709FE002837
:1030800072D175612046FFF7A9FDE36D03F01F02C1
:103090003F239340836023685C495D4A934218BF95
:1030A0008B4242D0183293423FD0183293423CD0E8
:1030B0001832934239D01832934236D018329342A4
:1030C00033D01832934230D002F5567293422CD04E
:1030D0001832934229D01832934226D018329342A4
:1030E00023D01832934220D0183293421DD0183288
:1030F00093421AD01832934217D0464A934214D0C2
:103100001432934211D0143293420ED014329342AF
:103110000BD01432934208D01432934205D01432AB
:10312000934202D01432934213D12046FFF7FAFDA6
:10313000A368802B59D0236E22791A60636EA26E29
:103140005A606368013B072B52D90023E36623676B
:10315000636700206065012384F8353044E7E16A45
:10316000206B01430A4364E740236365012084F830
:10317000350039E7022284F83520002284F8342013
:103180001A6825491140A268402A2CD0802A27D0ED
:103190000022E06842EAD002206942EAD002606977
:1031A00042EAD002A06942EAD002E06942EAD002D3
:1031B000206A42EA10120A431A602268174B13442D
:1031C000174AA2FB03231B099B00E3652046FFF778
:1031D00005FDE26D02F01F0101228A4042605AE7BC
:1031E0004FF48042D5E71022D3E700236360A2E7C3
:1031F0002046FFF7EDFDE36E00221A60236F626F39
:103200005A60A6E70120EFE63F8010FE1000024062
:1032100028000240085402580F00FEFFF8ABFDA73B
:10322000CDCCCCCC002800F0288108B5024690F81F
:103230003530DBB2022B03D080234365012008BD6B
:103240000368904890498B4218BF83420CBF01200D
:10325000002065D018318B4262D018318B425FD08C
:1032600018318B425CD018318B4259D018318B42C7
:1032700056D018318B4253D001F556718B424FD046
:1032800018318B424CD018318B4249D018318B42C7
:1032900046D018318B4243D018318B4240D0183180
:1032A0008B423DD018318B423AD0196821F00E0183
:1032B00019601368734874498B4218BF83426AD0FF
:1032C00072498B4267D018318B4264D018318B42DF
:1032D00061D018318B425ED018318B425BD01831EF
:1032E0008B4258D001F556718B4254D018318B4225
:1032F00051D018318B424ED018318B424BD01831FF
:103300008B4248D018318B4245D018318B4242D085
:1033100018318B423FD0196821F0010119603EE05D
:10332000042182F8351080BB584A93422DD01832C0
:1033300093422AD01832934227D01832934224D095
:103340001832934221D0183293421ED002F55672A1
:1033500093421AD01832934217D01832934214D0A5
:103360001832934211D0183293420ED01832934241
:103370000BD01832934208D01832934205D01A6805
:1033800022F001021A60002059E71A6822F00102B7
:103390001A60002053E7196821F0010119601368D1
:1033A000384839498B4218BF834242D018318B428A
:1033B0003FD018318B423CD018318B4239D0183174
:1033C0008B4236D018318B4233D018318B4230D0FB
:1033D00001F556718B422CD018318B4229D018310F
:1033E0008B4226D018318B4223D018318B4220D00B
:1033F00018318B421DD018318B421AD018318B42B4
:1034000017D023498B4214D014318B4211D0143180
:103410008B420ED014318B420BD014318B4208D02A
:1034200014318B4205D014318B4202D014318B42BF
:1034300017D1116E0B6823F480730B60906DD36D00
:1034400003F01F0101238B404360536E916E59605E
:10345000D36E33B1196821F480711960136F516F05
:103460005960012382F83530002382F83430136D1F
:103470002BB1104698470020E1E60120704700205C
:10348000DDE600BF1000024028000240400002407C
:1034900008540258F0B583B0044600230193894BC9
:1034A0001D68894BA3FB0535AD0A876D3E68D7F8CB
:1034B00000C0036885498648834218BF8B420CBF11
:1034C0000120002079D0834A934276D0183293426B
:1034D00073D01832934270D0183293426DD01832A4
:1034E00093426AD01832934267D002F556729342E3
:1034F00063D01832934260D0183293425DD01832B4
:1035000093425AD01832934257D01832934254D033
:103510001832934251D0183293424ED06E496F4ABE
:10352000934218BF8B422AD06D4A934227D014325F
:10353000934224D01432934221D0143293421ED0AD
:10354000143293421BD01432934218D0654A9342EE
:1035500015D01432934212D0143293420FD0143249
:1035600093420CD01432934209D01432934206D0C5
:103570001432934203D01432934240F063821A68AB
:10358000E16D01F01F010420884010EA0C0F00F0EB
:10359000A98212F0040F00F0A582786012F4004FA7
:1035A00000F05C8212F4803F40F05282A36C002B4A
:1035B00000F048822046984744E2E26D02F01F0185
:1035C00008228A40324241D070BB424A93422BD0FB
:1035D0001832934228D01832934225D018329342A1
:1035E00022D0183293421FD0183293421CD002F5D9
:1035F0005672934218D01832934215D01832934223
:1036000012D0183293420FD0183293420CD0183295
:10361000934209D01832934206D01832934203D015
:103620001A68C2F3C00202E01A68C2F380026AB1EB
:103630001A6822F004021A60E36D03F01F020823E7
:103640009340BB60636D43F001036365E26D02F07C
:103650001F0226FA02F313F0010F49D023681B481A
:103660001B498B4218BF83423ED018318B423BD05E
:1036700018318B4238D018318B4235D018318B42FB
:1036800032D018318B422FD018318B422CD001F51B
:1036900056718B4228D018318B4225D018318B427D
:1036A00022D018318B421FD018318B421CD01831D8
:1036B0008B4219D018318B4216D018318B4213D05F
:1036C0001B6815E004000024B5814E1B1000024069
:1036D0002800024040000240082C02481C2C0248EE
:1036E000302C0248085402585B6913F0800F3BD11C
:1036F000E36D03F01F03042202FA03F333423FD0C9
:103700002268964896498A4218BF824234D01831BE
:103710008A4231D018318A422ED018318A422BD0B9
:1037200018318A4228D018318A4225D018318A426D
:1037300022D001F556718A421ED018318A421BD020
:1037400018318A4218D018318A4215D018318A426D
:1037500012D018318A420FD018318A420CD0183159
:103760008A4209D013680BE001239340BB60636D6C
:1037700043F002036365BBE7126812F0020F3DD10C
:10378000E36D03F01F03102202FA03F333425FD00C
:103790002268724872498A4218BF824234D0183176
:1037A0008A4231D018318A422ED018318A422BD029
:1037B00018318A4228D018318A4225D018318A42DD
:1037C00022D001F556718A421ED018318A421BD090
:1037D00018318A4218D018318A4215D018318A42DD
:1037E00012D018318A420FD018318A420CD01831C9
:1037F0008A4209D01268C2F3800208E0BB60636DA0
:1038000043F004036365BBE71268C2F3C002FAB178
:10381000BB6023681A6812F4802F0DD01B6813F464
:10382000002F04D1236C9BB12046984710E0A36C75
:1038300073B1204698470BE01A6812F4807F03D1D9
:103840001A6822F008021A60236C0BB120469847D0
:10385000E36D03F01F03202202FA03F3334200F06A
:10386000938022683D483E498A4218BF82422ED04A
:1038700018318A422BD018318A4228D018318A4216
:1038800025D018318A4222D018318A421FD01831EF
:103890008A421CD001F556718A4218D018318A42EA
:1038A00015D018318A4212D018318A420FD01831FF
:1038B0008A420CD018318A4209D018318A4206D087
:1038C00018318A4203D01268C2F3400202E0126843
:1038D000C2F30012002A57D0BB6094F83530DBB237
:1038E000042B0ED023681A6812F4802F3AD01B687C
:1038F00013F4002F2DD1636C002B45D02046984740
:1039000042E02268136823F01603136022685369AB
:1039100023F080035361236CBBB12268136823F04A
:1039200008031360E36D03F01F023F239340BB6065
:10393000012384F83530002384F83430236D002BC4
:1039400000F08080204698477CE0A36C002BE4D1F7
:10395000E8E7E36BC3B12046984715E0100002404A
:10396000280002401A6812F4807F09D11A6822F0F8
:1039700010021A60012384F83530002384F83430B3
:10398000E36B0BB120469847636D002B5AD0636DF3
:1039900013F0010F52D0042384F835302368964980
:1039A000964A934218BF8B422FD0183293422CD0A4
:1039B0001832934229D01832934226D018329342BB
:1039C00023D01832934220D0183293421DD002F5F2
:1039D0005672934219D01832934216D0183293423D
:1039E00013D01832934210D0183293420DD01832AF
:1039F00093420AD01832934207D01832934204D02F
:103A00001A6822F001021A6003E01A6822F001022B
:103A10001A60019B01330193AB4204D823681B68F1
:103A200013F0010FF5D123681B6813F0010F0BD0C1
:103A3000032384F83530002384F83430E36C0BB171
:103A40002046984703B0F0BD012384F83530F2E7F3
:103A5000236C002BF6D020469847F3E712F0200F96
:103A60003AD123686449654A934218BF8B422FD0EC
:103A7000183293422CD01832934229D018329342F4
:103A800026D01832934223D01832934220D01832D5
:103A900093421DD002F55672934219D018329342C8
:103AA00016D01832934213D01832934210D01832E5
:103AB00093420DD0183293420AD01832934207D065
:103AC0001832934204D01A6822F004021A6003E00C
:103AD0001A6822F008021A60236C002BB2D020462C
:103AE0009847AFE70220884010EA0C0F60D012F030
:103AF000020F5DD0786012F4004F0ED012F4803FB8
:103B000005D1636C002B9DD0204698479AE7E36B64
:103B1000002B97D02046984794E712F0200F40D111
:103B200023683549354A934218BF8B422FD018324B
:103B300093422CD01832934229D01832934226D087
:103B40001832934223D01832934220D01832934235
:103B50001DD002F55672934219D01832934216D0F6
:103B60001832934213D01832934210D01832934235
:103B70000DD0183293420AD01832934207D018322F
:103B8000934204D01A6822F00A021A6003E01A680D
:103B900022F014021A60012384F83530002384F8DF
:103BA0003430E36B002B3FF44DAF2046984749E794
:103BB000082000FA01F111EA0C0F3FF443AF12F0B4
:103BC000080F3FF43FAF1A6822F00E021A60E36D4F
:103BD00003F01F03012202FA03F37B60626584F89D
:103BE0003520002384F83430E36C002B3FF42AAFF7
:103BF0002046984726E700BF1000024028000240F8
:103C0000F0B583B000236BE085685E000324B44008
:103C100025EA0405CC68B4402C438460456825EA55
:103C20000C054C68C4F300149C402C43446069E0CC
:103C3000DD08083550F8254003F0070C4FEA8C0CDE
:103C40004FF00F0E0EFA0CFE24EA0E0E0C6904FA69
:103C50000CF444EA0E0440F825406BE0092400E02F
:103C6000002404FA0EF42C430CF1020C694D45F8C3
:103C70002C404FF0B0442568D44325EA02064F6833
:103C800017F4801F01D042EA05064FF0B0452E60C0
:103C90006D6804EA05064F6817F4001F01D042EA78
:103CA00005064FF0B0456E60D5F8845004EA05066D
:103CB0004F6817F4003F01D042EA05064FF0B045C7
:103CC000C5F88460D5F880502C404E6816F4803FCB
:103CD00001D042EA05044FF0B042C2F880400133FF
:103CE0000A6832FA03F400F092804FF0010C0CFAEB
:103CF00003FC1CEA0202F2D04C6804F00304013C0D
:103D0000012C81D94C6804F00304032C0CD0C46846
:103D10005D004FF0030C0CFA05FC24EA0C0C8C68D7
:103D2000AC4044EA0C04C4604C6804F00304022C68
:103D30003FF47EAF04684FEA430E4FF0030C0CFAD9
:103D40000EFC24EA0C0C4C6804F0030404FA0EF494
:103D500044EA0C0404604C6814F4403FBFD02E4C7D
:103D6000D4F8545145F00205C4F85451D4F85441E4
:103D700004F002040194019C4FEA930C0CF102053B
:103D8000244C54F8255003F0030E4FEA8E0E0F24F6
:103D900004FA0EF425EA0405204CA0423FF460AF7B
:103DA00004F58064A04222D004F58064A04220D0B3
:103DB00004F58064A0421ED004F58064A0421CD0AB
:103DC00004F58064A0421AD004F58064A04218D0A3
:103DD00004F58064A04216D004F58064A04214D09B
:103DE00004F58064A0423FF439AF0A2439E7012486
:103DF00037E7022435E7032433E7042431E70524B9
:103E00002FE706242DE707242BE7082429E703B032
:103E1000F0BD00BF000400580044025800000258E2
:103E20000369194201D001207047002070470AB190
:103E300081617047090481617047436901EA0302A7
:103E400021EA030141EA024181617047002857D00D
:103E500010B5044690F84130002B41D0242384F85B
:103E600041302268136823F00103136063682268FD
:103E700023F0706313612268936823F40043936016
:103E8000E368012B31D0A368226843F404439360B4
:103E9000E368022B2FD0226851681A4B0B43536002
:103EA0002268D36823F40043D36023696269134313
:103EB000A169226843EA0123D360E369216A226889
:103EC0000B4313602268136843F001031360002062
:103ED0006064202384F84130206384F8420010BDE0
:103EE00080F84030FDF79EFDB8E7A368226843F4F0
:103EF00000439360CCE723684FF400625A60CAE73E
:103F00000120704700800002034690F84120D2B2A1
:103F1000202A23D190F84020012A21D0012280F8C4
:103F20004020242280F841200068026822F001022B
:103F300002601868026822F4805202601868026801
:103F40001143016019680A6842F001020A602022E8
:103F500083F84120002083F840007047022070471A
:103F600002207047034690F84120D2B2202A21D186
:103F700090F84020012A1FD0012280F840202422FE
:103F800080F841200068026822F00102026018688F
:103F9000026822F4706242EA0122026019680A682B
:103FA00042F001020A60202283F84120002083F8B9
:103FB00040007047022070470220704770B58AB0F9
:103FC000002800F097800546046890F8BD343BB3A4
:103FD000032385F8BD34E36B13F4807F01D1002304
:103FE000EB60286804F0E6FF2C4654F8106BEC46B2
:103FF0000FCCACE80F000FCCACE80F0094E8030046
:104000008CE803002B1D0ECB304604F085FF0446E0
:1040100058B1022385F8BD34012420460AB070BD92
:1040200080F8BC34FDF774FFD2E70021286805F062
:10403000F3F8234616E003EBC30205EB82020121ED
:1040400082F83D1082F83C30A2F85630002182F808
:1040500040105164916403EBC30205EB8202D1640A
:104060000133DBB269688B42E5D316E004EBC4038D
:1040700005EB8303002283F87D2283F87C4283F8DA
:104080008022C3F88422C3F8882204EBC40305EB22
:104090008303C3F88C220134E4B2A142E6D82C4653
:1040A00054F8106BEC460FCCACE80F000FCCACE82A
:1040B0000F0094E803008CE803002B1D0ECB304664
:1040C00004F0D4FF044660B9002385F8383001239A
:1040D00085F8BD346B6A012B08D0286805F08AF892
:1040E0009BE7022385F8BD34012496E7284600F0BB
:1040F00003F8F2E7012490E7034602680121C0F8C3
:104100000015002083F8F404936943F00063936181
:10411000516D024B0B435365704700BF0300001005
:10412000134BDB6813F0040F07D1114BDB6803F06E
:10413000070383421AD00120704710B50C4AD36898
:1041400023F007030343D360FEF72EF80446084B21
:104150005B6813F4005F07D1FEF726F8001BB0F58B
:104160007A7FF4D9012000E0002010BD00207047C4
:1041700000480258024AD36843F08073D360704706
:1041800000480258002800F0118338B5044603683F
:1041900013F0010F29D0A14A136903F03803926A82
:1041A000102B19D0182B13D06368B3F5803F43D080
:1041B000002B58D1994B1A6822F480321A601A6881
:1041C00022F480121A601A6822F480221A6038E001
:1041D00002F00302022AE7D1904B1B6813F4003F60
:1041E00003D06368002B00F0E382236813F0020F12
:1041F00000F0A280894A1369926A13F0380374D0E0
:10420000182B6FD0E368002B00F0C38083490A6845
:1042100022F0190213430B60FDF7C6FF05467F4BE2
:104220001B6813F0040F40F0AB80FDF7BDFF401B8F
:104230000228F4D90320C2E2784A136843F4803399
:1042400013606368002B3ED0FDF7AEFF0546734B4D
:104250001B6813F4003FC8D1FDF7A6FF401B64287C
:10426000F5D90320ABE2B3F5A02F10D0B3F5A81F0A
:104270001BD06A4B1A6822F480321A601A6822F442
:1042800080221A601A6822F480121A60D9E7634B00
:104290001A6842F480221A601A6822F480121A60A6
:1042A0001A6842F480321A60CBE75C4B1A6842F419
:1042B00080221A601A6842F480121A601A6842F466
:1042C00080321A60BDE7FDF76FFF0546534B1B6850
:1042D00013F4003F89D0FDF767FF401B6428F5D930
:1042E00003206CE212F0030F8CD14C4B1B6813F0CF
:1042F000040F03D0E368002B00F05C82474A136888
:1043000023F01903E1680B431360FDF74DFF0546E9
:10431000424B1B6813F0040F06D1FDF745FF401B0D
:104320000228F5D903204AE23C4A536823F0FE43B1
:10433000216943EA01635360236813F0100F51D0E1
:10434000364A136903F03803926A082B39D0182BC8
:1043500033D0E369002B6CD0304A136843F08003FC
:104360001360FDF721FF05462C4B1B6813F4807F7B
:1043700056D1FDF719FF401B0228F5D903201EE294
:10438000264A536823F0FE43216943EA01635360E0
:10439000D2E7224A136823F001031360FDF704FFFC
:1043A00005461E4B1B6813F0040FC5D0FDF7FCFE3D
:1043B000401B0228F5D9032001E202F00302012A82
:1043C000C7D1164B1B6813F4807F03D0E369802BA1
:1043D00040F0F281114AD36823F07C53216A43EA0A
:1043E0000163D360236813F0080F4AD06369002B80
:1043F00033D00A4A536F43F001035367FDF7D4FEED
:104400000546064B5B6F13F0020F3AD1FDF7CCFE69
:10441000401B0228F5D90320D1E100BF0044025817
:104420008C4AD36823F07C53216A43EA0163D3604A
:10443000D8E7884A136823F080031360FDF7B4FEC1
:104440000546844B1B6813F4807FCBD0FDF7ACFE90
:10445000401B0228F5D90320B1E17E4A536F23F0B7
:1044600001035367FDF7A0FE05467A4B5B6F13F01F
:10447000020F06D0FDF798FE401B0228F5D9032055
:104480009DE1236813F0200F29D0A3699BB1714AE5
:10449000136843F480531360FDF786FE05466D4BA9
:1044A0001B6813F4005F1AD1FDF77EFE401B022843
:1044B000F5D9032083E1674A136823F4805313601E
:1044C000FDF772FE0546634B1B6813F4005F06D0D0
:1044D000FDF76AFE401B0228F5D903206FE123682F
:1044E00013F0040F22D1636A002B00F06781594A50
:1044F000126902F03802182A00F00E81022B00F037
:104500009480544A136823F080731360FDF74CFEC7
:104510000446504B1B6813F0007F00F0FB80FDF752
:1045200043FE001B0228F4D9032048E14A4A1368DD
:1045300043F480731360FDF737FE0546464B1B6856
:1045400013F4807F06D1FDF72FFE401B6428F5D9B8
:10455000032034E1A368012B0ED033BB3D4B1A6F0F
:1045600022F001021A671A6F22F080021A671A6F8E
:1045700022F004021A6704E0364A136F43F0010385
:104580001367A368002B3ED0FDF70EFE0546314BA6
:104590001B6F13F0020FA6D1FDF706FE401B41F280
:1045A00088339842F3D9032009E1052B0FD0852BDE
:1045B0001BD0284B1A6F22F001021A671A6F22F0E3
:1045C00004021A671A6F22F080021A67D9E7214B9A
:1045D0001A6F42F004021A671A6F22F080021A67FB
:1045E0001A6F42F001021A67CBE71A4B1A6F42F0BA
:1045F00004021A671A6F42F080021A671A6F42F0BB
:1046000001021A67BDE7FDF7CFFD0546114B1B6F91
:1046100013F0020F3FF467AFFDF7C6FD401B41F2F8
:1046200088339842F2D90320C9E00A4A136823F07C
:1046300080731360FDF7B8FD0546064B1B6813F049
:10464000007F0BD0FDF7B0FD401B0228F5D90320F9
:10465000B5E000BF00440258004802585F4B996A19
:104660005F4A0A40A16AE06A41EA00110A439A627D
:10467000226B013AC2F30802616B0139490289B227
:104680000A43A16B0139090401F4FE010A43E16BFD
:104690000139090601F0FE410A431A63DA6A22F081
:1046A0000102DA62596B4F4A0A40A16C42EAC10228
:1046B0005A63DA6A22F00C02216C0A43DA62DA6A7F
:1046C00022F00202616C0A43DA62DA6A42F4803252
:1046D000DA62DA6A42F40032DA62DA6A42F480229A
:1046E000DA62DA6A42F00102DA621A6842F0807233
:1046F0001A60FDF759FD0446384B1B6813F0007F24
:1047000006D1FDF751FD001B0228F5D9032056E024
:10471000002054E0002052E030498A6A086B012BE7
:104720004ED002F00303A16A8B424BD1C2F30512B3
:10473000E36A9A4248D1C0F30802236B013B9A42D4
:1047400044D1C0F34622636B013B9A4240D1C0F38F
:104750000642A36B013B9A423CD1C0F30660E36B77
:10476000013B984238D11D4B5B6BC3F3CC03A26C69
:104770009A4201D1002022E0184AD36A23F00103B3
:10478000D362FDF711FD0546FDF70EFDA842FBD0F3
:10479000124A516B134B0B40A16C43EAC1035363A4
:1047A000D36A43F00103D362002008E00120704780
:1047B000012004E0012002E0012000E0002038BDDB
:1047C0000120FCE70120FAE70120F8E70120F6E7E5
:1047D0000120F4E70120F2E70120F0E7004402584D
:1047E0000CFCFFFF0700FFFF70B588B00C461546B4
:1047F00010BB234ED6F8403143F00103C6F84031D8
:10480000D6F8403103F001030193019B4FF480730C
:104810000393022304930323069300230593079332
:1048200003A91848FFF7ECF9336923F0FE73254319
:104830001D43356108B070BD114ED6F8403143F0CC
:104840000403C6F84031D6F8403103F00403029364
:10485000029B4FF4007303930223049303230693F4
:1048600000230593079303A90748FFF7C9F93369A4
:1048700023F07E4344EAC5141C433461DAE700BFE9
:10488000004402580000025800080258744B1B698B
:1048900003F03803102B00F0DE80182B0FD00BB183
:1048A000704870476E4B1B6813F0200F00F0D580E6
:1048B0006B4B1B68C3F3C1036B48D840704710B4FF
:1048C000674B9A6A02F003029C6AC4F30510D96A26
:1048D00001F001015B6BC3F3CC0301FB03F307EEB3
:1048E000903AF8EE677A14F47C7F00F09480012A05
:1048F00066D0022A00F09280E2B107EE100AF8EECC
:10490000476A9FED5A6A86EE267A554B1B6BC3F3B6
:10491000080306EE903AF8EE666A9FED556A67EE78
:10492000867A76EEA77AF7EE006A77EEA67A27EE19
:10493000277A61E04A4B1B6813F0200F23D04849C7
:104940000A68C2F3C102484BD34007EE103AF8EEB2
:10495000476A07EE100AB8EE476A86EE867A0B6B56
:10496000C3F3080306EE903AF8EE666A9FED406ADC
:1049700067EE867A76EEA77AF7EE006A77EEA67A89
:1049800027EE277A38E007EE100AF8EE476A9FED27
:10499000396A86EE267A324B1B6BC3F3080306EEA8
:1049A000903AF8EE666A9FED326A67EE867A76EEA6
:1049B000A77AF7EE006A77EEA67A27EE277A1BE051
:1049C00007EE100AF8EE476A9FED286A86EE267A0F
:1049D000234B1B6BC3F3080306EE903AF8EE666AAE
:1049E0009FED236A67EE867A76EEA77AF7EE006A85
:1049F00077EEA67A27EE277A194B1B6BC3F3462373
:104A0000013307EE903AF8EE677AC7EE276AFCEEBC
:104A1000E67A17EE900A5DF8044B704707EE100A2D
:104A2000F8EE476A9FED146A86EE267A0C4B1B6BF4
:104A3000C3F3080306EE903AF8EE666A9FED0C6A3F
:104A400067EE867A76EEA77AF7EE006A77EEA67AB8
:104A500027EE277AD0E7094870470348704700BF20
:104A60000044025800093D000090D0030024744A1D
:104A7000000000390024744C20BCBE4B40787D01FE
:104A8000002800F0328170B50D4604469B4B1B6830
:104A900003F00F038B420BD2984A136823F00F03E5
:104AA0000B431360136803F00F038B4240F01F8128
:104AB000236813F0040F0CD02269914B9B6903F01B
:104AC00070039A4205D98E498B6923F070031A430B
:104AD0008A61236813F0080F0CD06269884BDB6988
:104AE00003F070039A4205D98549CB6923F070031E
:104AF0001A43CA61236813F0100F0CD0A269804BCF
:104B0000DB6903F4E0639A4205D97D49CB6923F45C
:104B1000E0631A43CA61236813F0200F0CD0E269E6
:104B2000774B1B6A03F070039A4205D974490B6AEC
:104B300023F070031A430A62236813F0020F0CD0AB
:104B4000E2686F4B9B6903F00F039A4205D96C49E9
:104B50008B6923F00F031A438A61236813F0010F56
:104B600041D0674A936923F47063A1680B43936152
:104B70006368022B0AD0032B27D0012B2CD0604A6C
:104B8000126812F0040F06D10120ADE0126812F491
:104B9000003F00F0AE805A490A6922F00702134331
:104BA0000B61FDF701FB0646554B1B6903F038030B
:104BB0006268B3EBC20F16D0FDF7F6FA801B41F224
:104BC00088339842F0D903208EE04D4A126812F0E3
:104BD000007FE0D1012087E0494A126812F4807F0B
:104BE000D9D1012080E0236813F0020F0CD0E268D5
:104BF000434B9B6903F00F039A4205D240498B69EE
:104C000023F00F031A438A613C4B1B6803F00F0328
:104C1000AB420AD9394A136823F00F032B431360C0
:104C2000136803F00F03AB4265D1236813F0040F40
:104C30000CD02269324B9B6903F070039A4205D273
:104C40002F498B6923F070031A438A61236813F09C
:104C5000080F0CD062692A4BDB6903F070039A429B
:104C600005D22749CB6923F070031A43CA61236830
:104C700013F0100F0CD0A269214BDB6903F4E06341
:104C80009A4205D21E49CB6923F4E0631A43CA61F4
:104C9000236813F0200F0CD0E269194B1B6A03F054
:104CA00070039A4205D216490B6A23F070031A4327
:104CB0000A62FFF7EBFD12498B69C3F30323114A24
:104CC000D35C03F01F03D8408B6903F00F03D35C60
:104CD00003F01F0320FA03F30B4A13600B4B186019
:104CE0000B4B1868FDF750F970BD0120704701208B
:104CF000FAE70120F8E70120F6E700BF00200052A4
:104D000000440258D0220190000000240400002436
:104D10000C00002408B5FFF7B9FD0B4A9369C3F3F3
:104D200003230A49CB5C03F01F0320FA03F39269C3
:104D300002F00F02885C00F01F0023FA00F0044A22
:104D40001060044A136008BD00440258D02201904C
:104D5000000000240400002408B5FFF7DBFF054B2A
:104D6000DB69C3F30213044AD35C03F01F03D8408A
:104D700008BD00BF00440258D022019008B5FFF7DB
:104D8000C9FF054BDB69C3F30223044AD35C03F07C
:104D90001F03D84008BD00BF00440258D022019034
:104DA0003F230360114B1A6902F0070242609A69BF
:104DB00002F4706282609A6902F00F02C2609A691E
:104DC00002F070020261DA6902F070024261DA698F
:104DD00002F4E06282611B6A03F07003C361044B5A
:104DE0001B6803F00F030B60704700BF00440258BC
:104DF00000200052404B9B6A03F00303032B79D041
:104E000070B505460E463C4A136823F08063136074
:104E1000FDF7CAF90446384B1B6813F0006F06D043
:104E2000FDF7C2F9031B022BF5D9032070BD324BED
:104E30009A6A22F47C32296842EA01329A626A68EC
:104E4000013AC2F30802A9680139490289B20A434A
:104E5000E9680139090401F4FE010A4329690139AD
:104E6000090601F0FE410A439A63DA6A22F0C002A1
:104E700069690A43DA62DA6A22F02002A9690A4300
:104E8000DA62DA6A22F01002DA62D96B1B4A0A404F
:104E9000E96942EAC102DA63DA6A42F01002DA62D0
:104EA000C6B91A46DB6A43F40023D362124A136878
:104EB00043F080631360FDF777F904460E4B1B68DF
:104EC00013F0006F14D1FDF76FF9001B0228F5D91C
:104ED0000320ABE7012E05D0074AD36A43F4001341
:104EE000D362E3E7044AD36A43F48013D362DDE775
:104EF00000209BE701207047004402580700FFFF95
:104F0000404B9B6A03F00303032B79D070B5054631
:104F10000E463C4A136823F080531360FDF744F9B2
:104F20000446384B1B6813F0005F06D0FDF73CF9D0
:104F3000031B022BF5D9032070BD324B9A6A22F075
:104F40007C72296842EA01529A626A68013AC2F3A5
:104F50000802A9680139490289B20A43E96801399E
:104F6000090401F4FE010A4329690139090601F027
:104F7000FE410A431A64DA6A22F4406269690A430C
:104F8000DA62DA6A22F40072A9690A43DA62DA6A3A
:104F900022F48072DA62596C1B4A0A40E96942EADB
:104FA000C1025A64DA6A42F48072DA62C6B91A46F9
:104FB000DB6A43F48003D362124A136843F08053E0
:104FC0001360FDF7F1F804460E4B1B6813F0005F09
:104FD00014D1FDF7E9F8001B0228F5D90320ABE74F
:104FE000012E05D0074AD36A43F08073D362E3E70A
:104FF000044AD36A43F40003D362DDE700209BE751
:1050000001207047004402580700FFFFF8B504462E
:10501000036813F0006F30D0C36EB3F5001F26D0C5
:105020000ED8EBB1B3F5801F07D102210830FFF78E
:10503000E1FE054645B12E4621E0012635461EE03B
:10504000B3F5401F09D100259C4A136D23F440138A
:10505000E16E0B431365002611E0012635460EE094
:10506000964AD36A43F40033D3620025ECE7022169
:105070002830FFF745FF0546DCE700263546236864
:1050800013F4807F27D0A36D042B20D8DFE803F032
:10509000031118080800894AD36A43F40033D36225
:1050A000C5B9864A136D23F00703A16D0B43136541
:1050B00011E0002104F10800FFF79CFE0546EFE730
:1050C000002104F12800FFF71BFF0546E8E7012651
:1050D000354600E02E46236813F4007F1ED0E36DB2
:1050E000802B3BD00CD89BB3402B06D1002104F180
:1050F0000800FFF77FFE054608E0012635460DE073
:10510000B3F5807F02D0B3F5A07F1CD16DBB6B4A95
:10511000136D23F4E073E16D0B431365236813F4FF
:10512000806F36D0236EB3F5806F58D022D8002B15
:105130004FD0B3F5007F1AD1002104F10800FFF72A
:1051400059FE05461CE0C02BE0D001263546E5E7B8
:105150005A4AD36A43F40033D362D7E7002104F1FB
:105160002800FFF7CDFE0546D0E72E46D6E70126FC
:1051700035460EE0B3F5006F02D0B3F5206F22D1B3
:10518000002D33D14D4A136D23F46063216E0B4320
:105190001365236813F0007F31D0E36C202B42D0DD
:1051A00029D833B1102B23D1444AD36A43F40033B6
:1051B000D362002D3ED1414AD36C23F03003E16C21
:1051C0000B43D3641BE0B3F5C06FD9D0012635463D
:1051D000DFE73A4AD36A43F40033D362D0E70021D1
:1051E00004F12800FFF78CFE0546C9E72E46D0E7FC
:1051F0000126354603E0302BDBD0012635462368F7
:1052000013F4805F3BD0636EB3F5005F2FD016D8E8
:105210003BB3B3F5805F0FD1002104F10800FFF725
:10522000E9FD054611E0022104F10800FFF7E2FD67
:105230000546BEE72E46E2E7012635461FE0B3F5F8
:10524000405F02D0B3F5804F08D1BDB91B4A136D42
:1052500023F4E043616E0B43136510E001263546ED
:105260000DE0164AD36A43F40033D362EDE7002120
:1052700004F12800FFF744FE0546E6E72E462368C2
:1052800013F4005F27D0A36EB3F5003F39D017D8D1
:1052900043B1B3F5803F0ED1012104F10800FFF7BF
:1052A000A9FD0546A5BB054A136D23F4E023A16EB5
:1052B0000B4313650FE0012635460CE0004402580D
:1052C000B3F5802FEED0B3F5A02FEBD0B3F5403F70
:1052D000E8D001263546236813F4804F26D0D4F851
:1052E000B030B3F1005F4DD017D8002B3DD0B3F1F3
:1052F000805F0FD1012104F10800FFF77BFD054617
:1053000033E0012104F12800FFF7FAFD0546C9E763
:105310002E46E0E70126354608E0B3F1A04F24D041
:105320001DD9B3F1C04F20D001263546236813F4B0
:10533000004F09D0A36FB3F1805F2CD0B3F1005FB1
:1053400037D06BB301263546236813F0807F46D0F3
:10535000A36C032B6FD8DFE803F03A35673AB3F15B
:10536000405F02D0B3F1804F09D195B98E4A936D59
:1053700023F0E043D4F8B0100B439365D6E7012641
:105380003546D3E7012104F12800FFF7B9FD0546B2
:10539000EBE72E46CAE7844AD36A43F40033D3626C
:1053A00075B9814A136D23F04053A16F0B43136508
:1053B000CAE7012104F10800FFF71CFD0546EFE7ED
:1053C0002E46C1E7784AD36A43F40033D362ADBBBB
:1053D000754AD36C23F00303A16C0B43D364236899
:1053E00013F4800F2CD1236813F0010F00F0A58077
:1053F000D4F88430282B00F29E80DFE803F08B9CE9
:105400009C9C9C9C9C9C859C9C9C9C9C9C9C959CFA
:105410009C9C9C9C9C9C8B9C9C9C9C9C9C9C8B9CEE
:105420009C9C9C9C9C9C8B00022104F10800FFF733
:10543000E1FC0546CBE701263546D0E72E46CEE710
:105440005A4A136843F480731360FCF7ADFE0746B5
:10545000564B1B6813F4807F05D1FCF7A5FEC01BDB
:105460006428F5D90325002D4AD14F4B1B6FD4F882
:10547000B420534013F4407F0CD04B4B1A6F22F4EE
:105480004072196F41F480311967196F21F480312E
:1054900019671A67D4F8B430B3F5807F15D08DBB87
:1054A000D4F8B43003F44072B2F5407F1ED03E4AC7
:1054B000136923F47C5313613B490B6FD4F8B42078
:1054C000C2F30B0213430B678DE7FCF76DFE074633
:1054D000354B1B6F13F0020FE1D1FCF765FEC01BCB
:1054E00041F288339842F3D90325D8E72E48026960
:1054F00022F47C522E4901EA131313430361DBE7C4
:105500002E4670E72E466EE7012104F10800FFF7F2
:1055100071FC0546F5B9244A536D23F03803D4F8DD
:1055200084100B43536508E0012104F12800FFF7C4
:10553000E7FC0546EEE701263546236813F0020F27
:1055400019D0D4F88030052B29D8DFE803F00B05FB
:10555000210B0B0B2E46F0E7012104F10800FFF7A9
:1055600049FC0546F5B9104A536D23F00703D4F8FA
:1055700080100B435365236813F0040F29D0D4F82F
:105580009C30052B4BD8DFE803F01B15431B1B1B7E
:10559000012104F12800FFF7B3FC0546E2E70126EC
:1055A0003546E8E72E46E6E7004402580048025830
:1055B000CFFFFF00012104F10800FFF71BFC0546A7
:1055C00085BBAC4A936D23F00703D4F89C100B43C2
:1055D0009365236813F0200F34D0D4F89830B3F1DA
:1055E000005F4ED023D843B1B3F1805F1CD10021BE
:1055F00004F10800FFF7FEFB0546002D48D19D4A47
:10560000536D23F0E043D4F898100B43536519E031
:10561000012104F12800FFF773FC0546D0E70126BD
:105620003546D6E72E46D4E7012635460AE0B3F1E3
:10563000804FE2D0B3F1A04FDFD0B3F1405FDCD0B8
:1056400001263546236813F0400F31D0D4F8A4303A
:10565000B3F5006F4DD020D843B1B3F5806F19D1A9
:10566000002104F10800FFF7C5FB0546002D47D1D6
:10567000804A936D23F4E053D4F8A4100B43936550
:1056800016E0022104F12800FFF73AFC0546B4E7D2
:105690002E46D7E7012635460AE0B3F5805FE5D010
:1056A000B3F5A05FE2D0B3F5406FDFD001263546F9
:1056B000236813F0800F33D0D4F8A830B3F5804FAF
:1056C00000F0A38021D843B1B3F5005F1AD10021C7
:1056D00004F10800FFF78EFB0546002D40F09C808A
:1056E000644A936D23F46043D4F8A8100B43936588
:1056F00016E0022104F12800FFF702FC0546B5E799
:105700002E46D5E7012635460AE0B3F5004FE4D032
:10571000B3F5204FE1D0B3F5C04FDED001263546BA
:10572000236813F0080F0CD0D4F88C30B3F5805FE9
:1057300074D0504A536D23F44053D4F88C100B436B
:105740005365236813F0100F0CD0D4F8A030B3F5D4
:10575000807F6CD0474A936D23F44073D4F8A01037
:105760000B439365236813F4002F0BD0D4F8AC30AF
:10577000B3F5803F74D0B3F5003F67D0002B5FD006
:1057800001263546236813F4802F0CD0D4F89030CE
:10579000B3F5001F7FD0B3F5401F72D0B3F5801F63
:1057A0006AD001263546236813F4803F08D0236D64
:1057B000002B79D0B3F5803F00F084800126354678
:1057C000236813F0005F40F08680236813F4003FE5
:1057D00000F08E80D4F88830B3F5807F00F0EB8045
:1057E00040F28380B3F5007F03D0B3F5407F40F0F3
:1057F000E080002D40F0E5801E4A536D23F4407395
:10580000D4F888100B43536572E0022104F128009C
:10581000FFF776FB054660E72E4681E7022104F19B
:105820002800FFF76DFB002883D0012681E70221C5
:1058300004F12800FFF764FB00288BD0012689E7DC
:10584000002104F10800FFF7D5FA05467DB9094AA1
:10585000936D23F44033D4F8AC100B43936591E778
:10586000022104F12800FFF74BFB0546EEE72E4628
:1058700088E700BF004402586E4AD36A43F40033FD
:10588000D3627DB96B4A536D23F44013D4F8901062
:105890000B43536587E7012104F12800FFF730FB34
:1058A0000546EEE72E467EE7624AD36A43F40033AC
:1058B000D36275B95F4AD36C23F48033216D0B43F7
:1058C000D3647DE7022104F10800FFF793FA05464F
:1058D000EFE72E4674E7022104F12800FFF710FBE2
:1058E00000283FF472AF01266FE7002B81D001261C
:1058F000236813F4801F06D04E4A136D23F0004333
:10590000E16F0B431365236813F4001F06D0494A67
:10591000136D23F08073216F0B431365236813F419
:10592000006F06D0434A936D23F00063616F0B4311
:105930009365236813F0804F09D03E4B1A6922F417
:1059400000421A611A69D4F8B8100A431A61236830
:10595000002B06DA374AD36C23F04053616D0B43BA
:10596000D364236813F4000F07D0324A536D23F435
:105970004003D4F894100B435365636813F0010F90
:1059800021D1636813F0020F26D1636813F0040F6E
:105990002BD1636813F0080F30D1636813F0100F38
:1059A00035D1636813F0200F3AD106B10126304695
:1059B000F8BD01269CE71F4AD36A43F40033D36243
:1059C00017E72E4694E7002104F10800FFF712FACA
:1059D0000028D6D00646D4E7012104F10800FFF7DD
:1059E00009FA0028D1D00646CFE7022104F10800C9
:1059F000FFF700FA0028CCD00646CAE7002104F1E0
:105A00002800FFF77DFA0028C7D00646C5E7012128
:105A100004F12800FFF774FA0028C2D00646C0E758
:105A2000022104F12800FFF76BFA0028BDD00126FF
:105A3000BDE700BF0044025808B5FFF76BF9054BFE
:105A40001B6AC3F30213044AD35C03F01F03D8405C
:105A500008BD00BF00440258D022019010B4784B1A
:105A60009A6A9C6AC4F3053CD96AC1F30011DB6BE6
:105A7000C3F3CC0301FB03F314F47C3F00F0DB80A1
:105A800002F0030207EE903AF8EE677A012A66D038
:105A9000022A00F0B380E2B107EE10CAF8EE476ABE
:105AA0009FED686A86EE267A654B9B6BC3F308030D
:105AB00006EE903AF8EE666A9FED636A67EE867AC4
:105AC00076EEA77AF7EE006A77EEA67A27EE277AC7
:105AD00061E05B4B1B6813F0200F23D058490A6824
